:100000000C9434000C9451000C9451000C94510049
:100010000C9451000C9451000C9451000C9451001C
:100020000C9451000C9451000C9451000C9451000C
:100030000C9451000C9451000C9451000C945100FC
:100040000C9451000C9451000C94D9020C94510062
:100050000C9451000C9486020C9451000C945100A5
:100060000C9451000C94510011241FBECFEFD8E026
:10007000DEBFCDBF12E0A0E0B1E0ECEEF6E002C0E2
:1000800005900D92A23AB107D9F722E0A2EAB2E0B8
:1000900001C01D92AC3AB207E1F70E946D020C94C8
:1000A00074030C94000080E680937C00EAE7F0E0A3
:1000B0008EEA808310927B00808180648083089523
:1000C0008F70806680937C000895E0E8F0E0808186
:1000D000826A8083E1E8F0E080818A6180838FE337
:1000E0009CE9909387008093860084B1866084B9F0
:1000F0000895282F30E0A0EABFE00E9430032FEFE0
:1001000030E040E050E00E940E0328513C4F309315
:100110008900209388000895282F30E0A0EABFE0EE
:100120000E9430032FEF30E040E050E00E940E03C9
:1001300028513C4F30938B0020938A0008958AB158
:100140008C608AB98AB180698AB908958BB184605C
:100150008BB98BB1877F8BB908958BB18B7F8BB9AE
:100160008BB188608BB908958BB1837F8BB908956B
:100170008BB180618BB98BB18F778BB908958BB1BF
:100180008F7E8BB98BB180688BB908958BB18F76D8
:100190008BB9089584B5836A84BD85B5887F85BD94
:1001A00085B5846085BD8AB180648AB98AB1806270
:1001B0008AB90895809587BD0895809588BD089572
:1001C0008AB182608AB98AB18E7F8AB987E690E067
:1001D0009093C5008093C40088E98093C10086E0B5
:1001E0008093C20008959091C00095FFFCCF80934A
:1001F000C6000895CF93DF93EC0103C021960E94BF
:10020000F30088818111FACFDF91CF910895805852
:1002100008950F931F93CF93DF93C82F082E000CE0
:10022000DD0B262F062E000C330B8E01021B130B49
:10023000C20FD31F01309FEF190714F401E01FEF25
:10024000C1309FEFD90714F4C1E0DFEF875F83313E
:1002500078F4673F6CF06A305CF40E94B4000E944E
:10026000C60080E00E94DA0080E00E94DD001CC031
:10027000112334F00E94A600802F0E94DA0006C0ED
:100280000E94AD00802F81950E94DA00DD2334F0BA
:100290000E94B8008C2F0E94DD0006C00E94BF00A3
:1002A0008C2F81950E94DD00DF91CF911F910F91DE
:1002B00008951F93CF93DF93C82FD62F842F122F2B
:1002C0000E947900812F0E948C008C2F0E940701D0
:1002D000C82F8D2F0E940701682F8C2F0E940901C3
:1002E000DF91CF911F910895FF920F931F93CF93AA
:1002F000DF93CDB7DEB728970FB6F894DEBF0FBEF9
:10030000CDBFE9EAF2E0008110E0102F00278181E3
:10031000082BF28081E091E00E94FA0040E1BE01EA
:100320006F5F7F4F80E390E00E943F0389E291E09E
:100330000E94FA00CE0101960E94FA0085E191E048
:100340000E94FA0040E1BE016F5F7F4FC8010E942A
:100350003F03CE0101960E94FA0081E291E00E94E3
:10036000FA0040E1BE016F5F7F4F8F2D90E00E9449
:100370003F03CE0101960E94FA008CE291E00E94B8
:10038000FA0040E1BE016F5F7F4F8AE590E00E9476
:100390003F0389E291E00E94FA00CE0101960E949B
:1003A000FA008EED91E00E94FA00043484E418070C
:1003B000D1F168F4023482E4180729F1033483E4AC
:1003C000180749F10134114409F064C014C006341F
:1003D00086E4180709F43FC020F40534154459F1A8
:1003E00059C0073487E4180709F445C00834184495
:1003F00009F449C04FC087E391E00E94FA008F2DB5
:100400000E94DA004BC08BE591E00E94FA008F2D2C
:100410000E94DD0043C08FE791E00E94FA008F2D1B
:100420000E9479003BC080EA91E00E94FA008F2D83
:100430000E948C0033C081EC91E00E94FA0081EEB2
:1004400091E00E94FA008F2D0E94F3008EED91E062
:100450000E94FA0023C08FEF91E00E94FA0080E230
:1004600092E00E94FA008F2D0E94F3008EED91E041
:100470000E94FA0013C082E492E00E94FA0081E038
:10048000809300010BC08FE592E00E94FA00109269
:10049000000104C08FE792E00E94FA0028960FB690
:1004A000F894DEBF0FBECDBFDF91CF911F910F91AA
:1004B000FF900895F8940E94CA000E9465000E946F
:1004C0009F000E9453000E94E0008FE70E94790085
:1004D0008FE70E947900789408950E945A028091D3
:1004E000A202882321F00E9474011092A20280913E
:1004F00000018823A1F32091A4024091A5026091FC
:10050000A6028091A7020E945901E9CF1F920F9283
:100510000FB60F9211242F933F934F935F936F93D6
:100520007F938F939F93AF93BF93EF93FF938091AC
:10053000A802813081F028F08230B9F08330F9F0E0
:1005400027C0809179008093A70281E08093A80260
:100550000E9460001DC0809179008093A60282E015
:100560008093A8020E94600013C08091790080935C
:10057000A50283E08093A8020E94600009C08091D8
:1005800079008093A4021092A80280E00E9460008B
:10059000FF91EF91BF91AF919F918F917F916F915B
:1005A0005F914F913F912F910F900FBE0F901F9031
:1005B00018951F920F920FB60F9211248F939F934D
:1005C000EF93FF938091C6009091A20291111DC0FC
:1005D000803319F41092A30218C08A3541F4909127
:1005E000A302933021F481E08093A2020EC0909187
:1005F000A302933050F4E091A30291E09E0F9093F8
:10060000A302F0E0E755FD4F8083FF91EF919F91AA
:100610008F910F900FBE0F901F901895A1E21A2E88
:10062000AA1BBB1BFD010DC0AA1FBB1FEE1FFF1F96
:10063000A217B307E407F50720F0A21BB30BE40BE6
:10064000F50B661F771F881F991F1A9469F760952D
:100650007095809590959B01AC01BD01CF010895E7
:10066000A29FB001B39FC001A39F700D811D1124F3
:10067000911DB29F700D811D1124911D0895BB27FE
:100680004A3031F4992322F4BDE2909581959F4F31
:100690000C944B03BB27FB015527AA27880F991FF2
:1006A000AA1FA41710F0A41B83955051B9F7A05DA1
:1006B000AA3308F0A95DA193009779F7B111B1931E
:1006C0001192CB010C946403DC01FC01672F719142
:1006D0007723E1F7329704C07C916D937083629128
:0C06E000AE17BF07C8F30895F894FFCFD1
:1006EC00010D0A5B554152545D2052582053544120
:1006FC0052543A20002C20494E5354523A20307810
:10070C00002C20444154413A203078002C2052587F
:10071C0020454E443A20005B4C4F475D20456A65AE
:10072C00637574616E646F3A204D4F544F5252454D
:10073C00445543544F525F580D0A005B4C4F475D74
:10074C0020456A65637574616E646F3A204D4F5431
:10075C004F525245445543544F525F590D0A005B5A
:10076C004C4F475D20456A65637574616E646F3AE2
:10077C0020534552564F4D4F544F525F580D0A005F
:10078C005B4C4F475D20456A65637574616E646FA1
:10079C003A20534552564F4D4F544F525F590D0A04
:1007AC00005B4C4F475D20456A65637574616E64F0
:1007BC006F3A20454550524F4D5F524541440D0A0A
:1007CC00005B4C4F475D204C6579656E646F20452E
:1007DC004550524F4D20626C6F7175653A20005B2D
:1007EC004C4F475D20456A65637574616E646F3A62
:1007FC0020454550524F4D5F57524954450D0A0004
:10080C005B4C4F475D2045736372696269656E642A
:10081C006F20454550524F4D20626C6F7175653A93
:10082C0020005B4C4F475D204D6F646F206D616EF7
:10083C0075616C20414354495641444F0D0A005B8D
:10084C004C4F475D204D6F646F206D616E75616C10
:10085C0020444553414354495641444F0D0A005BD3
:10086C004552524F525D20496E73747275636369C1
:10087C00F36E20646573636F6E6F636964610D0A58
:02088C0000006A
:00000001FF
