:100000000C9434000C9451000C9451000C94510049
:100010000C9451000C9451000C9451000C9451001C
:100020000C9451000C9451000C9451000C9451000C
:100030000C9451000C9451000C9451000C945100FC
:100040000C9451000C9451000C94AF030C9451008B
:100050000C9451000C9452030C9451000C945100D8
:100060000C9451000C94510011241FBECFEFD8E026
:10007000DEBFCDBF15E0A0E0B1E0EEE9F8E002C0E0
:1000800005900D92A036B107D9F725E0A0E6B5E0BE
:1000900001C01D92A736B207E1F70E9438030C9405
:1000A0004D040C940000F999FECF92BD81BD60BD56
:1000B0008FB384608FBB8FB382608FBB0895F99933
:1000C000FECF92BD81BD8FB381608FBB80B5089597
:1000D000ECE7F0E0808180668083EAE7F0E08081F1
:1000E000886880838081866080838081806280834D
:1000F000ABE7B0E08C9186608C93808180648083D4
:100100000895ECE7F0E09081907F8F70892B8083D9
:1001100008958AB18C608AB98AB180698AB90895D4
:100120008BB184608BB98BB1877F8BB908958BB10C
:100130008B7F8BB98BB188608BB908958BB180614F
:100140008BB98BB18F778BB908958BB18F7E8BB9BB
:100150008BB180688BB9089584B5836A84BD85B5F9
:10016000826085BD8AB180648AB98AB180628AB9A9
:100170000895809587BD0895809588BD0895E0E82D
:10018000F0E08081826A8083E1E8F0E080818A612A
:1001900080838FE39CE9909387008093860084B1ED
:1001A000866084B90895282F30E0ADECBCE00E9451
:1001B0003E04BB27A92F982F872FBC016453734F90
:1001C00080918600909187008617970720F46091B0
:1001D000860070918700709389006093880008956D
:1001E000282F30E0ADECBCE00E943E04BB27A92FD5
:1001F000982F872FBC016453734F80918600909194
:1002000087008617970720F4609186007091870019
:1002100070938B0060938A0008958AB182608AB9D6
:100220008AB18E7F8AB987E690E09093C50080936B
:10023000C40088E98093C10086E08093C2000895DD
:100240009091C00095FFFCCF8093C6000895CF9396
:10025000DF93EC0103C021960E9420018881811167
:10026000FACFDF91CF910895F8940E94AC000E94DC
:10027000BF000E9489000E9468000E940D017894CE
:1002800008951F93CF93DF93E0E0F1E0C081D0E0C9
:10029000DC2FCC278181C82B128183E091E00E9462
:1002A0002701C43484E4D807D1F168F4C23482E46D
:1002B000D80729F1C33483E4D80749F1C134D144C4
:1002C00009F022C114C0C63486E4D80709F49DC0E1
:1002D00020F4C534D54459F117C1C73487E4D80791
:1002E00009F403C1C834D84409F407C10DC18AE137
:1002F00091E00E942701812F0E94B90009C18DE27F
:1003000091E00E942701812F0E94BC0001C180E47E
:1003100091E00E942701812F0E94D300F9C080E55F
:1003200091E00E942701812F0E94F000F1C080E639
:1003300091E00E9427011233C1F018F4113331F01B
:1003400041C0133309F1143371F13CC08FE691E0E1
:100350000E94270180E090E00E945F00D82F81E09A
:1003600090E00E945F00C82F33C080E991E00E94B6
:10037000270182E090E00E945F00D82F83E090E0A8
:100380000E945F00C82F24C081EB91E00E942701EA
:1003900084E090E00E945F00D82F85E090E00E940A
:1003A0005F00C82F15C082ED91E00E94270186E012
:1003B00090E00E945F00D82F87E090E00E945F00ED
:1003C000C82F06C083EF91E00E942701C0E0D0E073
:1003D00089E493E00E94270186E092E00E942701D1
:1003E0008D2F0E9420018CE293E00E9427018C2F28
:1003F0000E94200189E493E00E9427018D2F0E9432
:10040000D3008C2F0E94F00083C088E192E00E940C
:1004100027011233D1F018F4113331F049C01333EE
:1004200029F11433A1F144C088E292E00E9427012F
:100430006091650580E090E00E9453006091640542
:1004400081E090E00E94530037C08BE492E00E946C
:1004500027016091650582E090E00E945300609161
:10046000640583E090E00E94530026C08EE692E08F
:100470000E9427016091650584E090E00E9453008E
:100480006091640585E090E00E94530015C081E909
:1004900092E00E9427016091650586E090E00E944D
:1004A00053006091640587E090E00E94530004C00F
:1004B00083EF91E00E94270189E493E00E942701E5
:1004C00084EB92E00E942701809165050E94200143
:1004D0008CE293E00E942701809164050E94200134
:1004E00089E493E00E94270113C085EC92E00E940A
:1004F000270181E0809361050BC08DEE92E00E94A0
:1005000027011092610504C088E193E00E94270151
:10051000812F0E94200189E493E00E94270189E451
:1005200093E00E942701DF91CF911F9108950F93CF
:100530001F93CF93DF9380E393E00E9427018CE425
:1005400093E00E94270100E010E019C0E801CC0F01
:10055000DD1FFE01E05CFA4F808191810E9427013E
:1005600082EA93E00E942701C05BDA4F89810E94F2
:10057000200189E493E00E9427010F5F1F4F08309C
:10058000110520F389E493E00E94270186EA93E0B5
:100590000E94270183ED93E00E94270180EE93E003
:1005A0000E94270189E493E00E9427018AEE93E0EC
:1005B0000E942701DF91CF911F910F9108958058DC
:1005C00008950F931F93CF93DF93C82F880FDD0BF0
:1005D000062E000C770B8E01061B170BC60FD71FBC
:1005E00001308FEF180714F401E01FEFC1308FEFD7
:1005F000D80714F4C1E0DFEF112334F00E9490001B
:10060000802F0E94B90006C00E949700802F81951C
:100610000E94B900DD2334F00E949E008C2F0E94BE
:10062000BC0006C00E94A5008C2F81950E94BC00D2
:10063000DF91CF911F910F9108951F93CF93DF9377
:10064000C82FD62F842F122F0E94D300812F0E94F3
:10065000F0008C2F0E94DF02C82F8D2F0E94DF0236
:10066000682F8C2F0E94E102DF91CF911F91089596
:100670000E9434018BE194E00E9427010E949702BE
:1006800085B1826085B9809161058823E1F320916D
:1006900062054091630560916405809165050E9443
:1006A0001D03F1CF1F920F920FB60F9211242F93BB
:1006B0003F934F935F936F937F938F939F93AF93EA
:1006C000BF93EF93FF9380916605813081F028F00E
:1006D0008230B9F08330F9F028C08091790080939E
:1006E000650581E0809366050E94810027C08091A6
:1006F00079008093640582E0809366050E94810002
:100700001DC0809179008093630583E08093660526
:100710000E94810013C0809179008093620510923D
:10072000660580E00E94810009C080917900809375
:1007300065051092660580E00E948100FF91EF91AF
:10074000BF91AF919F918F917F916F915F914F91E9
:100750003F912F910F900FBE0F901F9018951F92F1
:100760000F920FB60F9211242F933F934F935F93E5
:100770006F937F938F939F93AF93BF93CF93EF9399
:10078000FF93C091C60080916005823069F128F422
:10079000882349F08130B9F05DC08330B1F18430F5
:1007A00009F444C057C0C03309F056C081E08093BB
:1007B0006005E0E0F1E010821182128289E594E0A8
:1007C0000E94270149C0C093000182E08093600528
:1007D0008BE694E00E9427018C2F0E94200189E47F
:1007E00093E00E94270138C0C093010183E0809309
:1007F00060058DE794E00E9427018C2F0E94200164
:1008000089E493E00E94270127C0C093020184E09D
:10081000809360058FE894E00E9427018C2F0E944E
:10082000200189E493E00E94270116C0CA3539F4FB
:100830008FE994E00E9427010E94410108C08EEADE
:1008400094E00E94270189E493E00E94270110921E
:10085000600502C010926005FF91EF91CF91BF91AA
:10086000AF919F918F917F916F915F914F913F9148
:100870002F910F900FBE0F901F901895A29FB0015F
:10088000B39FC001A39F700D811D1124911DB29FC4
:0E089000700D811D1124911D0895F894FFCF65
:10089E00A5CCFF496E73747275636369F36E207233
:1008AE00656369626964613A20004D4F544F52523C
:1008BE0045445543544F522058202D20004D4F543F
:1008CE004F525245445543544F522059202D20002B
:1008DE00534552564F4D4F544F522058202D200005
:1008EE00534552564F4D4F544F522059202D2000F4
:1008FE00454550524F4D2052454144202D20004C2D
:10090E006579656E646F206461746F7320656E2007
:10091E0064697265636369F36E204E6F2E20310039
:10092E004C6579656E646F206461746F7320656EBB
:10093E002064697265636369F36E204E6F2E2032F8
:10094E00004C6579656E646F206461746F73206509
:10095E006E2064697265636369F36E204E6F2E209C
:10096E0033004C6579656E646F206461746F73201B
:10097E00656E2064697265636369F36E204E6F2E37
:10098E0020340044697265636369F36E20496E76A4
:10099E00E16C696461004461746F73205265636930
:1009AE006269646F733A2000454550524F4D20578F
:1009BE0052495445202D20004775617264616E6462
:1009CE006F206461746F7320656E20646972656355
:1009DE006369F36E204E6F2E20310047756172648D
:1009EE00616E646F206461746F7320656E2064693C
:1009FE007265636369F36E204E6F2E203200477569
:100A0E00617264616E646F206461746F7320656ED1
:100A1E002064697265636369F36E204E6F2E203316
:100A2E00004775617264616E646F206461746F73E8
:100A3E0020656E2064697265636369F36E204E6F84
:100A4E002E2034004461746F732045736372697491
:100A5E006F733A20004D414E55414C20454E414258
:100A6E004C45202D20486162696C6974616E646F1B
:100A7E00206D6F646F206D616E75616C004D414E1F
:100A8E0055414C20454E41424C45202D2044657326
:100A9E00686162696C6974616E646F206D6F646FFA
:100AAE00206D616E75616C00494E5354525543432F
:100ABE0049D34E20494E56C14C494441202D200069
:100ACE00494E535452554343494F4E4553202845A2
:100ADE004E20415343494929200D0A00506172614D
:100AEE0020656A656375746172206C617320736929
:100AFE00677569656E74657320696E73747275635C
:100B0E0063696F6E65732C20636F6C6F71756520F2
:100B1E00656C206361726163746572206D6F7374AE
:100B2E007261646F20646F73207665636573200D48
:100B3E000A00203A20005061726120696E69636973
:100B4E0061722079207465726D696E6172206672B1
:100B5E00616D65732064652033206279746573203E
:100B6E000D0A00496E6963696F3A2030200D0A0044
:100B7E0046696E3A205A200D0A00496E67726573F7
:100B8E006520756E20636172616374657220706199
:100B9E00726120616363696F6E617220656C207390
:100BAE00697374656D612E200D0A0050524F4752C5
:100BBE00414D414349D34E204445204D4943524F68
:100BCE00434F4E54524F4C41444F524553202D20CB
:100BDE0050524F594543544F2032202D20524543F9
:100BEE004550544F52200D0A00496E6963696F20BB
:100BFE006465204672616D650D0A00427974652048
:100C0E003120726563696269646F3A2000427974BB
:100C1E0065203220726563696269646F3A20004410
:100C2E0061746F20726563696269646F3A20004671
:100C3E00696E206465204672616D650D0A0045522D
:100C4E00524F523A2053652065737065726162612E
:100C5E002066696E206465206672616D650D0A00FE
:100C6E004D4F544F525245445543544F525F5800C6
:100C7E004D4F544F525245445543544F525F5900B5
:100C8E00534552564F4D4F544F525F580053455295
:100C9E00564F4D4F544F525F5900454550524F4D90
:100CAE005F5245414400454550524F4D5F575249A2
:100CBE005445004D414E55414C5F454E41424C45C9
:100CCE00004D414E55414C5F44495341424C450005
:100CDE00D004E004F004FD040A05160523053105D1
:100CEE0041414242434344444545464647474848AE
:00000001FF
