:100000000C9434000C9451000C9451000C94510049
:100010000C9451000C9451000C9451000C9451001C
:100020000C9451000C9451000C9451000C9451000C
:100030000C9451000C9451000C9451000C945100FC
:100040000C9451000C9451000C94CF030C9451006B
:100050000C9451000C9472030C9451000C945100B8
:100060000C9451000C94510011241FBECFEFD8E026
:10007000DEBFCDBF14E0A0E0B1E0EAE2F8E002C0EC
:1000800005900D92A83FB107D9F725E0A8EFB4E09D
:1000900001C01D92A330B207E1F70E9438030C940F
:1000A00013040C940000F999FECF92BD81BD60BD90
:1000B0008FB384608FBB8FB382608FBB0895F99933
:1000C000FECF92BD81BD8FB381608FBB80B5089597
:1000D000ECE7F0E0808180668083EAE7F0E08081F1
:1000E000886880838081866080838081806280834D
:1000F000ABE7B0E08C9186608C93808180648083D4
:100100000895ECE7F0E09081907F8F70892B8083D9
:1001100008958AB18C608AB98AB180698AB90895D4
:100120008BB184608BB98BB1877F8BB908958BB10C
:100130008B7F8BB98BB188608BB908958BB180614F
:100140008BB98BB18F778BB908958BB18F7E8BB9BB
:100150008BB180688BB9089584B5836A84BD85B5F9
:10016000826085BD8AB180648AB98AB180628AB9A9
:100170000895809587BD0895809588BD0895E0E82D
:10018000F0E08081826A8083E1E8F0E080818A612A
:1001900080838FE39CE9909387008093860084B1ED
:1001A000866084B90895282F30E0ADECBCE00E9451
:1001B0000404BB27A92F982F872FBC016453734FCA
:1001C00080918600909187008617970720F46091B0
:1001D000860070918700709389006093880008956D
:1001E000282F30E0ADECBCE00E940404BB27A92F0F
:1001F000982F872FBC016453734F80918600909194
:1002000087008617970720F4609186007091870019
:1002100070938B0060938A0008958AB182608AB9D6
:100220008AB18E7F8AB987E690E09093C50080936B
:10023000C40088E98093C10086E08093C2000895DD
:100240009091C00095FFFCCF8093C6000895CF9396
:10025000DF93EC0103C021960E9420018881811167
:10026000FACFDF91CF910895F8940E94AC000E94DC
:10027000BF000E9489000E9468000E940D017894CE
:1002800008951F93CF93DF93E0E0F5E0C081D0E0C5
:10029000DC2FCC278181C82B128180E091E00E9465
:1002A0002701C43484E4D807D1F168F4C23482E46D
:1002B000D80729F1C33483E4D80749F1C134D144C4
:1002C00009F022C114C0C63486E4D80709F49DC0E1
:1002D00020F4C534D54459F117C1C73487E4D80791
:1002E00009F403C1C834D84409F407C10DC187E13A
:1002F00091E00E942701812F0E94B90009C18AE282
:1003000091E00E942701812F0E94BC0001C18DE372
:1003100091E00E942701812F0E94D300F9C08DE453
:1003200091E00E942701812F0E94F000F1C08DE52D
:1003300091E00E9427011233C1F018F4113331F01B
:1003400041C0133309F1143371F13CC08CE691E0E4
:100350000E94270180E090E00E945F00D82F81E09A
:1003600090E00E945F00C82F33C08DE891E00E94AA
:10037000270182E090E00E945F00D82F83E090E0A8
:100380000E945F00C82F24C08EEA91E00E942701DE
:1003900084E090E00E945F00D82F85E090E00E940A
:1003A0005F00C82F15C08FEC91E00E94270186E006
:1003B00090E00E945F00D82F87E090E00E945F00ED
:1003C000C82F06C080EF91E00E942701C0E0D0E076
:1003D00086E493E00E94270183E092E00E942701D7
:1003E0008D2F0E94200189E293E00E9427018C2F2B
:1003F0000E94200186E493E00E9427018D2F0E9435
:10040000D3008C2F0E94F00083C085E192E00E940F
:1004100027011233D1F018F4113331F049C01333EE
:1004200029F11433A1F144C085E292E00E94270132
:100430006091FE0480E090E00E9453006091FD0412
:1004400081E090E00E94530037C088E492E00E946F
:1004500027016091FE0482E090E00E9453006091C9
:10046000FD0483E090E00E94530026C08BE692E0FA
:100470000E9427016091FE0484E090E00E945300F6
:100480006091FD0485E090E00E94530015C08EE865
:1004900092E00E9427016091FE0486E090E00E94B5
:1004A00053006091FD0487E090E00E94530004C077
:1004B00080EF91E00E94270186E493E00E942701EB
:1004C00081EB92E00E9427018091FE040E942001AE
:1004D00089E293E00E9427018091FD040E9420019F
:1004E00086E493E00E94270113C082EC92E00E9410
:1004F000270181E08093FA040BC08AEE92E00E940B
:1005000027011092FA0404C085E193E00E942701BC
:10051000812F0E94200186E493E00E94270186E457
:1005200093E00E942701DF91CF911F9108950F93CF
:100530001F93CF93DF938DE293E00E94270189E41C
:1005400093E00E94270100E010E019C0E801CC0F01
:10055000DD1FFE01E952FB4F808191810E9427013E
:100560008FE993E00E942701C951DB4F89810E94E6
:10057000200186E493E00E9427010F5F1F4F08309F
:10058000110520F386E493E00E94270183EA93E0BB
:100590000E94270180ED93E00E9427018DED93E0FA
:1005A0000E94270186E493E00E94270187EE93E0F2
:1005B0000E942701DF91CF911F910F9108958058DC
:1005C00008950F931F93CF93DF93C82F880FDD0BF0
:1005D000062E000C770B8E01061B170BC60FD71FBC
:1005E00001308FEF180714F401E01FEFC1308FEFD7
:1005F000D80714F4C1E0DFEF112334F00E9490001B
:10060000802F0E94B90006C00E949700802F81951C
:100610000E94B900DD2334F00E949E008C2F0E94BE
:10062000BC0006C00E94A5008C2F81950E94BC00D2
:10063000DF91CF911F910F9108951F93CF93DF9377
:10064000C82FD62F842F122F0E94D300812F0E94F3
:10065000F0008C2F0E94DF02C82F8D2F0E94DF0236
:10066000682F8C2F0E94E102DF91CF911F91089596
:100670000E94340188E194E00E9427010E949702C1
:1006800085B1826085B98091F8048823E1F086E520
:1006900094E00E942701C0E00CC0EC2FF0E0E05095
:1006A000FB4F80810E9420018BE293E00E94270192
:1006B000CF5FC33090F386E493E00E9427010E944D
:1006C00041011092F8048091FA048823E1F220910C
:1006D000FB044091FC046091FD048091FE040E94A3
:1006E0001D03D1CF1F920F920FB60F9211242F939B
:1006F0003F934F935F936F937F938F939F93AF93AA
:10070000BF93EF93FF938091FF04813081F028F035
:100710008230B9F08330F9F028C08091790080935D
:10072000FE0481E08093FF040E94810027C0809135
:1007300079008093FD0482E08093FF040E94810091
:100740001DC0809179008093FC0483E08093FF04B6
:100750000E94810013C0809179008093FB04109265
:10076000FF0480E00E94810009C08091790080939D
:10077000FE041092FF0480E00E948100FF91EF913F
:10078000BF91AF919F918F917F916F915F914F91A9
:100790003F912F910F900FBE0F901F9018951F92B1
:1007A0000F920FB60F9211248F939F93EF93FF93A5
:1007B0008091C6009091F80491111DC0803319F406
:1007C0001092F90418C08A3541F49091F9049330DD
:1007D00021F481E08093F8040EC09091F9049330E5
:1007E00050F4E091F90491E09E0F9093F904F0E049
:1007F000E050FB4F8083FF91EF919F918F910F907D
:100800000FBE0F901F901895A29FB001B39FC0011B
:10081000A39F700D811D1124911DB29F700D811D2C
:0A0820001124911D0895F894FFCFF4
:10082A00496E73747275636369F36E2072656369E6
:10083A00626964613A20004D4F544F525245445503
:10084A0043544F522058202D20004D4F544F52529E
:10085A0045445543544F522059202D2000534552A8
:10086A00564F4D4F544F522058202D200053455279
:10087A00564F4D4F544F522059202D200045455078
:10088A00524F4D2052454144202D20004C65796538
:10089A006E646F206461746F7320656E2064697280
:1008AA0065636369F36E204E6F2E2031004C6579C3
:1008BA00656E646F206461746F7320656E2064696D
:1008CA007265636369F36E204E6F2E2032004C65A9
:1008DA0079656E646F206461746F7320656E20643D
:1008EA00697265636369F36E204E6F2E2033004C84
:1008FA006579656E646F206461746F7320656E201C
:10090A0064697265636369F36E204E6F2E2034004A
:10091A0044697265636369F36E20496E76E16C69B6
:10092A006461004461746F7320526563696269642B
:10093A006F733A2000454550524F4D205752495443
:10094A0045202D20004775617264616E646F2064D2
:10095A0061746F7320656E2064697265636369F3FD
:10096A006E204E6F2E2031004775617264616E648D
:10097A006F206461746F7320656E206469726563A9
:10098A006369F36E204E6F2E2032004775617264E0
:10099A00616E646F206461746F7320656E20646990
:1009AA007265636369F36E204E6F2E2033004775BC
:1009BA00617264616E646F206461746F7320656E26
:1009CA002064697265636369F36E204E6F2E20346A
:1009DA00004461746F73204573637269746F733A6C
:1009EA0020004D414E55414C20454E41424C452038
:1009FA002D20486162696C6974616E646F206D6F45
:100A0A00646F206D616E75616C004D414E55414CAD
:100A1A0020454E41424C45202D2044657368616251
:100A2A00696C6974616E646F206D6F646F206D61AB
:100A3A006E75616C00494E53545255434349D34E27
:100A4A0020494E56C14C494441202D2000494E535D
:100A5A005452554343494F4E45532028454E204151
:100A6A005343494929200D0A005061726120656A81
:100A7A00656375746172206C617320736967756947
:100A8A00656E74657320696E737472756363696FDA
:100A9A006E65732C20636F6C6F71756520656C20B1
:100AAA006361726163746572206D6F7374726164DD
:100ABA006F20646F73207665636573200D0A0020CA
:100ACA003A20005061726120696E6963696172201F
:100ADA0079207465726D696E6172206672616D65E6
:100AEA00732064652033206279746573200D0A00CF
:100AFA00496E6963696F3A2030200D0A0046696EB3
:100B0A003A205A200D0A00496E677265736520758E
:100B1A006E20636172616374657220706172612014
:100B2A00616363696F6E617220656C2073697374A7
:100B3A00656D612E200D0A0050524F4752414D41BA
:100B4A004349D34E204445204D4943524F434F4ECB
:100B5A0054524F4C41444F524553202D2050524F2E
:100B6A00594543544F2032202D2052454345505475
:100B7A004F52200D0A004672616D652072656369E5
:100B8A006269646F3A20004D4F544F5252454455A2
:100B9A0043544F525F58004D4F544F52524544559B
:100BAA0043544F525F5900534552564F4D4F544F7D
:100BBA00525F5800534552564F4D4F544F525F594A
:100BCA0000454550524F4D5F5245414400454550FE
:100BDA00524F4D5F5752495445004D414E55414C75
:100BEA005F454E41424C45004D414E55414C5F4494
:100BFA00495341424C45006704770487049404A191
:100C0A0004AD04BA04C80441414242434344444542
:080C1A004546464747484800E3
:00000001FF
