:100000000C9434000C9451000C9451000C94510049
:100010000C9451000C9451000C9451000C9451001C
:100020000C9451000C9451000C9451000C9451000C
:100030000C9451000C9451000C9451000C945100FC
:100040000C9451000C9451000C9429040C94510010
:100050000C9451000C94D6030C9451000C94510054
:100060000C9451000C94510011241FBECFEFD8E026
:10007000DEBFCDBF13E0A0E0B1E0ECE8F9E002C0E4
:1000800005900D92A632B107D9F723E0A6E2B3E0BE
:1000900001C01D92A233B207E1F70E94B6030C948F
:1000A000C4040C940000F999FECF92BD81BD60BDDF
:1000B0008FB384608FBB8FB382608FBB0895F99933
:1000C000FECF92BD81BD8FB381608FBB80B5089597
:1000D00080E680937C00EAE7F0E08EEA808310926D
:1000E0007B0080818064808308958F708066809318
:1000F0007C0008958AB18C608AB98AB180698AB916
:1001000008958BB184608BB98BB1877F8BB90895CB
:100110008BB18B7F8BB98BB188608BB908958BB114
:10012000837F8BB908958BB180618BB98BB18F7749
:100130008BB908958BB18F7E8BB98BB180688BB9E9
:1001400008958BB18F768BB9089584B5836A84BD89
:1001500085B5887F85BD85B5846085BD8AB180649D
:100160008AB98AB180628AB90895809587BD089559
:10017000809588BD0895E0E8F0E08081826A808300
:10018000E1E8F0E080818A6180838FE39CE99093CD
:1001900087008093860084B1866084B90895282FF3
:1001A00030E0A0EABFE00E9480042FEF30E040E0A2
:1001B00050E00E945E0428513C4F30938900209308
:1001C00088000895282F30E0A0EABFE00E94800454
:1001D0002FEF30E040E050E00E945E0428513C4F99
:1001E00030938B0020938A0008958AB182608AB987
:1001F0008AB18E7F8AB987E690E09093C50080939C
:10020000C40088E98093C10086E08093C20008950D
:100210009091C00095FFFCCF8093C6000895CF93C6
:10022000DF93EC0103C021960E94080188818111AF
:10023000FACFDF91CF910895805808950F931F93BF
:10024000CF93DF93C82F082E000CDD0B262F062E30
:10025000000C330B8E01021B130BC20FD31F013096
:100260009FEF190714F401E01FEFC1309FEFD9078A
:1002700014F4C1E0DFEF875F833178F4673F6CF0FF
:100280006A305CF40E948F000E94A10080E00E940E
:10029000B50080E00E94B8001CC0112334F00E9419
:1002A0008100802F0E94B50006C00E948800802F28
:1002B00081950E94B500DD2334F00E9493008C2FBD
:1002C0000E94B80006C00E949A008C2F81950E945F
:1002D000B800DF91CF911F910F9108951F93CF9395
:1002E000DF93C82FD62F842F122F0E94CF00812F8B
:1002F0000E94E2008C2F0E941C01C82F8D2F0E94AB
:100300001C01682F8C2F0E941E01DF91CF911F913D
:100310000895FF920F931F93CF93DF93CDB7DEB76E
:1003200060970FB6F894DEBF0FBECDBFEFE2F3E0EB
:10033000008110E0102F00278181082BF28081E0DE
:1003400091E00E940F0140E1BE016F5F7F4F80E3AB
:1003500090E00E948F0489E291E00E940F01CE019B
:1003600001960E940F0185E191E00E940F0140E19A
:10037000BE016F5F7F4FC8010E948F04CE010196BE
:100380000E940F0181E291E00E940F0140E1BE0155
:100390006F5F7F4F8F2D90E00E948F04CE010196FA
:1003A0000E940F018CE291E00E940F0140E1BE012A
:1003B0006F5F7F4F8AE590E00E948F0489E291E0B1
:1003C0000E940F01CE0101960E940F018EED91E077
:1003D0000E940F0188B18F7D88B9043484E4180726
:1003E00009F468C070F4023482E41807E1F10334C0
:1003F00083E4180709F454C00134114409F081C1A1
:1004000015C0063486E4180709F4E0C028F4053462
:10041000154409F459C075C1073487E4180709F475
:100420005BC10834184409F462C16BC187E391E0F1
:100430000E940F01FF203CF40E94810080E88F0D94
:100440000E94B50062C18EE78F1538F00E948800C7
:100450008FE78F190E94B50058C10E948F0080E07D
:100460000E94B50052C18BE591E00E940F01FF2070
:100470003CF40E94930080E88F0D0E94B80045C1B3
:100480008EE78F1538F00E949A008FE78F190E942F
:10049000B8003BC10E948F0080E00E94B50035C1CA
:1004A0008FE791E00E940F018F2D0E94CF00F09204
:1004B00027032BC180EA91E00E940F018F2D0E943B
:1004C000E200F092260321C188B1806288B981ECF4
:1004D00091E00E940F0181EE91E00E940F018F2DAB
:1004E0000E9408018EED91E00E940F0182E3F81650
:1004F000C1F08F1520F081E3F81641F033C083E39B
:10050000F816D1F084E3F81611F12CC080E090E0E9
:100510000E945F00082F81E090E00E945F00182F8A
:1005200026C082E090E00E945F00082F83E090E008
:100530000E945F00182F1BC084E090E00E945F00C3
:10054000082F85E090E00E945F00182F10C086E021
:1005500090E00E945F00082F87E090E00E945F001B
:10056000182F05C08FEF91E00E940F01CEC080E2EE
:1005700092E00E940F0140E1BE01675F7F4F802F34
:1005800090E00E948F04CE0109960E940F018EED2B
:1005900091E00E940F0188E392E00E940F0140E188
:1005A000BE01675F7F4F812F90E00E948F04CE01D4
:1005B00009960E940F018EED91E00E940F01802F9D
:1005C0000E94CF00812F0E94E2009FC088B180620C
:1005D00088B980E592E00E940F0181E792E00E94D5
:1005E0000F018F2D0E9408018EED91E00E940F01F6
:1005F00082E3F816D1F08F1520F081E3F81641F070
:100600003BC083E3F816F1F084E3F81641F134C0FF
:100610006091270380E090E00E94530060912603E0
:1006200081E090E00E9453002CC06091270382E09B
:1006300090E00E9453006091260383E090E00E94C6
:1006400053001FC06091270384E090E00E94530094
:100650006091260385E090E00E94530012C06091F3
:10066000270386E090E00E9453006091260387E014
:1006700090E00E94530005C08FEF91E00E940F01AF
:1006800044C083E992E00E940F018091270340E17A
:10069000BE01675F7F4F90E00E948F04CE010996F4
:1006A0000E940F018EED91E00E940F018DEA92E011
:1006B0000E940F018091260340E1BE01675F7F4FDA
:1006C00090E00E948F04CE0109960E940F018EEDEA
:1006D00091E00E940F0119C087EC92E00E940F0187
:1006E00088B18F7E88B981E0809300010EC084EECE
:1006F00092E00E940F011092000188B1806188B9D8
:1007000004C084E093E00E940F0160960FB6F89455
:10071000DEBF0FBECDBFDF91CF911F910F91FF9034
:100720000895F8940E94A5000E94BB000E947A00E0
:100730000E9468000E94F50084B1806284B987B18C
:10074000806187B987B1806287B985B18F7D85B9AE
:1007500088B18F7E88B988B18F7D88B98FE70E9474
:10076000CF008FE70E94CF00789408950E949103F4
:1007700080912803882321F00E9489011092280388
:1007800080910001882371F020912A0340912B036E
:1007900060912C0380912D030E946E0185B18062CF
:1007A00085B9E6CF85B18F7D85B9E2CF1F920F92D3
:1007B0000FB60F9211242F933F934F935F936F9334
:1007C0007F938F939F93AF93BF93EF93FF9380910A
:1007D0002E03813081F028F08230B9F08330F9F0B7
:1007E00027C08091790080932D0381E080932E03B0
:1007F0000E9475001DC08091790080932C0382E0D7
:1008000080932E030E94750013C08091790080931D
:100810002B0383E080932E030E94750009C0809112
:10082000790080932A0310922E0380E00E947500C5
:10083000FF91EF91BF91AF919F918F917F916F91B8
:100840005F914F913F912F910F900FBE0F901F908E
:1008500018951F920F920FB60F9211248F939F93AA
:10086000EF93FF938091C6009091280391111DC0D2
:10087000803319F41092290318C08A3541F49091FD
:100880002903933021F481E0809328030EC09091D6
:100890002903933050F4E091290391E09E0F909347
:1008A0002903F0E0E15DFC4F8083FF91EF919F9180
:1008B0008F910F900FBE0F901F901895A1E21A2EE6
:1008C000AA1BBB1BFD010DC0AA1FBB1FEE1FFF1FF4
:1008D000A217B307E407F50720F0A21BB30BE40B44
:1008E000F50B661F771F881F991F1A9469F760958B
:1008F0007095809590959B01AC01BD01CF01089545
:10090000A29FB001B39FC001A39F700D811D112450
:10091000911DB29F700D811D1124911D0895BB275B
:100920004A3031F4992322F4BDE2909581959F4F8E
:100930000C949B04BB27FB015527AA27880F991FFE
:10094000AA1FA41710F0A41B83955051B9F7A05DFE
:10095000AA3308F0A95DA193009779F7B111B1937B
:100960001192CB010C94B404DC01FC01672F71914E
:100970007723E1F7329704C07C916D937083629185
:0C098000AE17BF07C8F30895F894FFCF2E
:10098C00010D0A5B554152545D205258205354417D
:10099C0052543A20002C20494E5354523A2030786D
:1009AC00002C20444154413A203078002C205258DD
:1009BC0020454E443A20005B4C4F475D20456A650C
:1009CC00637574616E646F3A204D4F544F525245AB
:1009DC00445543544F525F580D0A005B4C4F475DD2
:1009EC0020456A65637574616E646F3A204D4F548F
:1009FC004F525245445543544F525F590D0A005BB8
:100A0C004C4F475D20456A65637574616E646F3A3F
:100A1C0020534552564F4D4F544F525F580D0A00BC
:100A2C005B4C4F475D20456A65637574616E646FFE
:100A3C003A20534552564F4D4F544F525F590D0A61
:100A4C00005B4C4F475D20456A65637574616E644D
:100A5C006F3A20454550524F4D5F524541440D0A67
:100A6C00005B4C4F475D204C6579656E646F20458B
:100A7C004550524F4D20626C6F7175653A20005B8A
:100A8C004552524F525D20426C6F71756520454541
:100A9C0050524F4D20696E76E16C69646F0D0A00FF
:100AAC005B4C4F475D2056616C6F722041206C652A
:100ABC00ED646F3A203078005B4C4F475D205661F7
:100ACC006C6F722042206C65ED646F3A20307800B8
:100ADC005B4C4F475D20456A65637574616E646F4E
:100AEC003A20454550524F4D5F57524954450D0AD7
:100AFC00005B4C4F475D2045736372696269656E9C
:100B0C00646F20454550524F4D20626C6F71756576
:100B1C003A20005B4C4F475D2056616C6F72204150
:100B2C00206573637269746F3A203078005B4C4FA8
:100B3C00475D2056616C6F72204220657363726949
:100B4C00746F3A203078005B4C4F475D204D6F64DA
:100B5C006F206D616E75616C204143544956414460
:100B6C004F0D0A005B4C4F475D204D6F646F206D3D
:100B7C00616E75616C204445534143544956414460
:100B8C004F0D0A005B4552524F525D20496E7374F3
:100B9C007275636369F36E20646573636F6E6F6364
:060BAC006964610D0A00FE
:00000001FF
