S01D000050726F796563746F325F56657273696F6E53696D702E73726563A2
S11300000C9434000C9451000C9451000C94510045
S11300100C9451000C9451000C9451000C94510018
S11300200C9451000C9451000C9451000C94510008
S11300300C9451000C9451000C9451000C945100F8
S11300400C9451000C9451000C94AE020C94510089
S11300500C9451000C945B020C9451000C945100CC
S11300600C9451000C94510011241FBECFEFD8E022
S1130070DEBFCDBF11E0A0E0B1E0ECE2F6E002C0EB
S113008005900D92A230B107D9F721E0A2E0B1E0CA
S113009001C01D92AC30B207E1F70E9442020C94F9
S11300A014030C940000F999FECF92BD81BD60BD8C
S11300B08FB384608FBB8FB382608FBB0895F9992F
S11300C0FECF92BD81BD8FB381608FBB80B5089593
S11300D080E680937C00EAE7F0E08EEA8083109269
S11300E07B0080818064808308958F708066809314
S11300F07C0008958AB18C608AB98AB180698AB912
S113010008958BB184608BB98BB1877F8BB90895C7
S11301108BB18B7F8BB98BB188608BB908958BB110
S1130120837F8BB908958BB180618BB98BB18F7745
S11301308BB908958BB18F7E8BB98BB180688BB9E5
S113014008958BB18F768BB9089584B5836A84BD85
S113015085B5887F85BD85B5846085BD8AB1806499
S11301608AB98AB180628AB90895809587BD089555
S1130170809588BD0895E0E8F0E08081826A8083FC
S1130180E1E8F0E080818A6180838FE39CE99093C9
S113019087008093860084B1866084B90895282FEF
S11301A030E0A0EABFE00E9405032FEF30E040E01A
S11301B050E00E94E30228513C4F30938900209381
S11301C088000895282F30E0A0EABFE00E940503CC
S11301D02FEF30E040E050E00E94E30228513C4F12
S11301E030938B0020938A0008958AB182608AB983
S11301F08AB18E7F8AB987E690E09093C500809398
S1130200C40088E98093C10086E08093C200089509
S1130210805808950F931F93CF93DF93C82F082E10
S1130220000CDD0B262F062E000C330B8E01021B57
S1130230130BC20FD31F01309FEF190714F401E011
S11302401FEFC1309FEFD90714F4C1E0DFEF875FE0
S1130250833178F4673F6CF06A305CF40E948F005D
S11302600E94A10080E00E94B50080E00E94B800D6
S11302701CC0112334F00E948100802F0E94B5001D
S113028006C00E948800802F81950E94B500DD235E
S113029034F00E9493008C2F0E94B80006C00E9484
S11302A09A008C2F81950E94B800DF91CF911F9105
S11302B00F9108951F93CF93DF93C82FD62F842FC8
S11302C0122F0E94CF00812F0E94E2008C2F0E94E7
S11302D00801C82F8D2F0E940801682F8C2F0E94BF
S11302E00A01DF91CF911F910895E9E0F1E02081A7
S11302F030E0322F22278181282B8281243494E418
S1130300390759F168F4223492E4390701F12334AE
S113031093E43907F9F02134314409F0A5C014C03D
S1130320263496E4390709F45AC020F425343544B8
S1130330B9F00895273487E4380709F48FC02834C6
S1130340384409F48FC008950E94B50008950E94AE
S1130350B80008950E94CF0008950E94E200089515
S11303608233B1F018F4813331F008958333E9F026
S1130370843341F1089580E090E00E945F000E9480
S1130380CF0081E090E00E945F000E94E2000895A7
S113039082E090E00E945F000E94CF0083E090E042
S11303A00E945F000E94E200089584E090E00E94B1
S11303B05F000E94CF0085E090E00E945F000E94F1
S11303C0E200089586E090E00E945F000E94CF0062
S11303D087E090E00E945F000E94E200089582336B
S11303E0B1F018F4813331F008958333E9F08433A4
S11303F041F108956091070180E090E00E9453006C
S11304006091060181E090E00E945300089560919C
S1130410070182E090E00E9453006091060183E0AE
S113042090E00E94530008956091070184E090E0F9
S11304300E9453006091060185E090E00E94530001
S113044008956091070186E090E00E945300609156
S1130450060187E090E00E945300089581E08093B4
S113046000010895109200010895F8940E94A500D7
S11304700E94BB000E947A000E9468000E94F5005E
S1130480789408950E94350280910201882321F016
S11304900E94750110920201809100018823A1F34A
S11304A020910401409105016091060180910701AA
S11304B00E945A01E9CF1F920F920FB60F92112496
S11304C02F933F934F935F936F937F938F939F9358
S11304D0AF93BF93EF93FF9380910801813081F034
S11304E028F08230B9F08330F9F027C08091790088
S11304F08093070181E0809308010E9475001DC06C
S1130500809179008093060182E0809308010E9423
S1130510750013C0809179008093050183E0809376
S113052008010E94750009C080917900809304013C
S11305301092080180E00E947500FF91EF91BF9135
S1130540AF919F918F917F916F915F914F913F9167
S11305502F910F900FBE0F901F9018951F920F921E
S11305600FB60F9211248F939F93EF93FF93809173
S1130570C6009091020191111DC0803319F41092AC
S1130580030118C08A3541F490910301933021F49A
S113059081E0809302010EC090910301933050F4E6
S11305A0E091030191E09E0F90930301F0E0E75F77
S11305B0FE4F8083FF91EF919F918F910F900FBE1B
S11305C00F901F901895A1E21A2EAA1BBB1BFD01C8
S11305D00DC0AA1FBB1FEE1FFF1FA217B307E4071E
S11305E0F50720F0A21BB30BE40BF50B661F771F76
S11305F0881F991F1A9469F7609570958095909556
S11306009B01AC01BD01CF010895A29FB001B39F2E
S1130610C001A39F700D811D1124911DB29F700D07
S10F0620811D1124911D0895F894FFCF52
S105062C0100C7
S9030000FC
