S01A000050726F796563746F325F5265636570746F722E73726563E0
S11300000C9434000C9451000C9451000C94510045
S11300100C9451000C9451000C9451000C94510018
S11300200C9451000C9451000C9451000C94510008
S11300300C9451000C9451000C9451000C945100F8
S11300400C9451000C9451000C949F000C9451009A
S11300500C9451000C9451000C9451000C945100D8
S11300600C9451000C94510011241FBECFEFD8E022
S1130070DEBFCDBF12E0A0E0B1E0E8EEF2E002C0E6
S113008005900D92A234B107D9F722E0A2E4B2E0C0
S113009001C01D92A634B207E1F70E9494000C94AB
S11300A072010C940000E0E8F0E08081826A8083B1
S11300B0E1E8F0E080818A6180838FE39CE990939A
S11300C087008093860084B1866084B908958AB1DC
S11300D082608AB98AB18E7F8AB987E690E090936C
S11300E0C5008093C40088E98093C10086E08093B2
S11300F0C20008959091C00095FFFCCF8093C60084
S11301000895CF93DF93EC0103C021960E947A00F7
S113011088818111FACFDF91CF9108950E94670001
S11301200E945300789408950E948E0084E091E028
S11301300E94810082E491E00E948100FFCF1F921F
S11301400F920FB60F9211242F933F934F935F9307
S11301506F937F938F939F93AF93BF93CF93DF93CB
S1130160EF93FF93C091C600C53A19F580914502FB
S113017081111FC0809103018823D9F010920301DB
S113018081E08093450280E006C0E82FF0E0E05073
S1130190FF4F10828F5F8330C0F386E691E00E94A8
S11301A081008C2F0E947A0083E691E00E948100F6
S11301B086C080914502882399F010924502C0932D
S11301C0000181E08093440284E891E00E94810070
S11301D08C2F0E947A0083E691E00E9481006FC018
S11301E080914402882399F010924402C093010143
S11301F081E0809343028EEA91E00E9481008C2F7B
S11302000E947A0083E691E00E94810058C08091A8
S11302104302882399F010924302C093020181E0C3
S11302208093420289ED91E00E9481008C2F0E940C
S11302307A0083E691E00E94810041C0CA35A1F5AD
S113024080914202882381F11092420281E08093DE
S1130250030186EF91E00E9481008C2F0E947A00B6
S113026083E691E00E94810084E192E00E94810093
S1130270C0E0D1E088810E947A0088E292E00E9486
S1130280810089810E947A0088E292E00E948100C4
S11302908A810E947A008BE292E00E94810083E6C8
S11302A091E00E9481000BC08EE292E00E948100E6
S11302B08C2F0E947A0083E691E00E948100FF91D6
S11302C0EF91DF91CF91BF91AF919F918F917F91EA
S11302D06F915F914F913F912F910F900FBE0F90AF
S10B02E01F901895F894FFCF5C
S11302E8A5CCFF0150524F4752414D414349D34E8B
S11302F8204445204D4943524F434F4E54524F4C8E
S113030841444F524553202D2050524F5945435490
S11303184F2032202D205245434550544F52200D32
S11303280A004D6F737472616E646F206361726149
S113033863746572657320646520656E76ED6F2E4F
S11303482E2E200D0A00312E204D61726361206427
S11303586520496E6963696F206465204672616D22
S1130368653A20005072696D657220436172616359
S113037874657220646520496E7374727563636969
S1130388F36E20526563696269646F3A20005365AD
S113039867756E646F20436172616374657220646B
S11303A86520496E73747275636369F36E205265D0
S11303B863696269646F3A200043617261637465BA
S11303C872206465204461746F73205265636962A6
S11303D869646F3A200046696E206465204672613C
S11303E86D6520646520496E666F726D616369F39B
S11303F86E3A200041727265676C6F206465204410
S113040861746F733A205B002C20005D2000436107
S113041872616374657220496E76E16C69646F3A3F
S10504282000AE
S9030000FC
