:100000000C9434000C9451000C9451000C94510049
:100010000C9451000C9451000C9451000C9451001C
:100020000C9451000C9451000C9451000C9451000C
:100030000C9451000C9451000C9451000C945100FC
:100040000C9451000C9451000C9429010C94510013
:100050000C9451000C9451000C9451000C945100DC
:100060000C9451000C94510011241FBECFEFD8E026
:10007000DEBFCDBF13E0A0E0B1E0E0E0F4E002C0FD
:1000800005900D92AA3FB107D9F723E0AAEFB3E09C
:1000900001C01D92AE3FB207E1F70E9420010C940F
:1000A000FE010C940000E0E8F0E08081826A808329
:1000B000E1E8F0E080818A6180838FE39CE990939E
:1000C00087008093860084B1866084B908958AB1E0
:1000D00082608AB98AB18E7F8AB987E690E0909370
:1000E000C5008093C40088E98093C10086E08093B6
:1000F000C20008959091C00095FFFCCF8093C60088
:100100000895CF93DF93EC0103C021960E947A00FB
:1001100088818111FACFDF91CF9108950E94670005
:100120000E945300789408951F93CF93DF93E0E0EB
:10013000F1E0C081D0E0DC2FCC278181C82B128177
:1001400084E091E00E948100C53585E5D80769F01B
:1001500020F4C333D34399F01CC0CA3A8AEAD807C3
:1001600049F0CC3CDC4C81F014C08BE191E00E9462
:10017000810013C08EE291E00E9481000EC081E4F4
:1001800091E00E94810009C081E591E00E94810018
:1001900004C081E691E00E948100812F0E947A00D4
:1001A00082E991E00E948100DF91CF911F91089533
:1001B0000F931F93CF93DF9389E791E00E94810013
:1001C00085E991E00E94810000E010E019C0E8019B
:1001D000CC0FDD1FFE01E752FC4F808191810E9410
:1001E00081008BEE91E00E948100C751DC4F898134
:1001F0000E947A0082E991E00E9481000F5F1F4F08
:100200000830110520F382E991E00E9481008FEE11
:1002100091E00E9481008CE192E00E94810089E2DD
:1002200092E00E94810082E991E00E94810083E3D4
:1002300092E00E948100DF91CF911F910F9108956C
:100240000E948E0084E692E00E9481000E94D80005
:10025000FFCF1F920F920FB60F9211242F933F934F
:100260004F935F936F937F938F939F93AF93BF93BE
:10027000CF93DF93EF93FF93C091C600C53A19F572
:100280008091FD0381111FC0809103018823D9F063
:100290001092030181E08093FD0380E006C0E82F07
:1002A000F0E0E050FF4F10828F5F8330C0F382EAAE
:1002B00092E00E9481008C2F0E947A0082E991E0F6
:1002C0000E94810088C08091FD03882399F01092DC
:1002D000FD03C093000181E08093FC038DEB92E06D
:1002E0000E9481008C2F0E947A0082E991E00E9496
:1002F000810071C08091FC03882399F01092FC0367
:10030000C093010181E08093FB0387EE92E00E949D
:1003100081008C2F0E947A0082E991E00E94810086
:100320005AC08091FB03882399F01092FB03C0937D
:10033000020181E08093FA0382E193E00E94810050
:100340008C2F0E947A0082E991E00E94810043C0D4
:10035000CA35B1F58091FA03882391F11092FA031E
:1003600081E0809303018FE293E00E9481008C2F53
:100370000E947A0082E991E00E9481008DE493E07E
:100380000E948100C0E0D1E088810E947A0081E66D
:1003900093E00E94810089810E947A0081E693E0C7
:1003A0000E9481008A810E947A0084E693E00E9484
:1003B000810082E991E00E9481000E9494000BC0BC
:1003C00087E693E00E9481008C2F0E947A0082E9E8
:1003D00091E00E948100FF91EF91DF91CF91BF9159
:1003E000AF919F918F917F916F915F914F913F91CD
:1003F0002F910F900FBE0F901F901895F894FFCF7C
:10040000A5CCFF01496E73747275636369F36E2046
:1004100072656369626964613A20004D4F544F52BE
:100420005245445543544F522058202D20004D4FE3
:10043000544F525245445543544F522059202D2079
:1004400000534552564F4D4F544F522058202D20A7
:1004500000534552564F4D4F544F522059202D2096
:1004600000494E53545255434349D34E20494E56AA
:10047000C14C494441202D2000494E53545255430C
:1004800043494F4E45532028454E20415343494947
:1004900029200D0A005061726120656A65637574D8
:1004A0006172206C6173207369677569656E74652C
:1004B0007320696E737472756363696F6E65732CF4
:1004C00020636F6C6F71756520656C20636172616C
:1004D00063746572206D6F73747261646F20646FF2
:1004E00073207665636573200D0A00203A20005062
:1004F00061726120696E6963696172207920746537
:10050000726D696E6172206672616D6573206465DB
:100510002033206279746573200D0A00496E696387
:10052000696F3A20A5200D0A0046696E3A205A20CC
:100530000D0A00496E677265736520756E206361F0
:1005400072616374657220706172612061636369B6
:100550006F6E617220656C2073697374656D612EB6
:10056000200D0A0050524F4752414D414349D34E4E
:10057000204445204D4943524F434F4E54524F4C17
:1005800041444F524553202D2050524F594543541A
:100590004F2032202D205245434550544F52200DBC
:1005A0000A004D6172636120646520496E69636968
:1005B0006F206465204672616D653A200050726953
:1005C0006D65722043617261637465722064652099
:1005D000496E73747275636369F36E205265636963
:1005E0006269646F3A2000536567756E646F2043DB
:1005F0006172616374657220646520496E73747200
:1006000075636369F36E20526563696269646F3A6A
:1006100020004361726163746572206465204461E7
:10062000746F7320526563696269646F3A20004693
:10063000696E206465204672616D6520646520499D
:100640006E666F726D616369F36E3A20004172727B
:1006500065676C6F206465204461746F733A205B3A
:10066000002C20005D20004361726163746572207C
:10067000496E76E16C69646F3A20004D4F544F52D9
:100680005245445543544F525F58004D4F544F52BA
:100690005245445543544F525F5900534552564FAB
:1006A0004D4F544F525F5800534552564F4D4F5483
:1006B0004F525F5900454550524F4D5F31004545FF
:1006C00050524F4D5F3200454550524F4D5F330001
:1006D000454550524F4D5F34007B038B039B03A86D
:1006E00003B503BE03C703D0035555AAAA3333CCC1
:0A06F000CC0F0FF0F0999966660038
:00000001FF
