S01A000050726F796563746F325F5265636570746F722E73726563E0
S11300000C9434000C9451000C9451000C94510045
S11300100C9451000C9451000C9451000C94510018
S11300200C9451000C9451000C9451000C94510008
S11300300C9451000C9451000C9451000C945100F8
S11300400C9451000C9451000C9478000C945100C1
S11300500C9451000C9451000C9451000C945100D8
S11300600C9451000C94510011241FBECFEFD8E022
S1130070DEBFCDBF11E0A0E0B1E0EEE5F2E002C0EA
S113008005900D92AC30B107D9F721E0ACE0B1E0B6
S113009001C01D92A631B207E1F70E9471000C94D1
S11300A02D010C9400008AB182608AB98AB18E7FD6
S11300B08AB987E690E09093C5008093C40088E9EC
S11300C08093C10086E08093C20008959091C0009F
S11300D095FFFCCF8093C60008950E945300789446
S11300E008950E946D0084E091E00E94FD00FFCF1E
S11300F01F920F920FB60F9211242F933F934F9399
S11301005F936F937F938F939F93AF93BF93CF939B
S1130110EF93FF93C091C6008C2F0E946600C53AEE
S1130120D9F480910F01811117C0809103018823B4
S113013099F01092030181E080930F0180E006C0E2
S1130140E82FF0E0E050FF4F10828F5F8330C0F360
S113015081E30E9466003FC080910F01882359F01B
S113016010920F01C093000181E080930E0182E39D
S11301700E94660030C080910E01882359F01092CD
S11301800E01C093010181E080930D0183E30E947D
S1130190660021C080910D01882359F010920D0151
S11301A0C093020181E080930C0184E30E94660005
S11301B012C0CA3569F480910C01882349F0109269
S11301C00C0181E08093030185E30E94660003C073
S11301D086E30E946600FF91EF91CF91BF91AF91AA
S11301E09F918F917F916F915F914F913F912F914B
S11301F00F900FBE0F901F9018950F931F93CF93DE
S1130200DF93E0911201F0911301238121FF1BC0C0
S11302108C01D0E0C0E0F80181918F01609112015E
S113022070911301DB011896ED91FC9119978823C5
S113023031F00995892B79F3DFEFCFEFECCF8AE02A
S11302400995892B19F08FEF9FEF02C08D2F9C2FFA
S1110250DF91CF911F910F910895F894FFCF85
S10F025EA5CCFF0154696C696E200D00F2
S9030000FC
