S01C000050726F796563746F325F4D6F646F4D616E75616C2E7372656335
S11300000C9434000C9451000C9451000C94510045
S11300100C9451000C9451000C9451000C94510018
S11300200C9451000C9451000C9451000C94510008
S11300300C9451000C9451000C9451000C945100F8
S11300400C9451000C9451000C9451000C945100E8
S11300500C9451000C947A010C9451000C945100AE
S11300600C9451000C94510011241FBECFEFD8E022
S1130070DEBFCDBF11E0A0E0B1E0E0E0F4E002C0FB
S113008005900D92A030B107D9F721E0A0E0B1E0CE
S113009001C01D92A530B207E1F70E946D010C94D6
S11300A0FE010C94000080E680937C00EAE7F0E017
S11300B08EEA808310927B0080818064808308951F
S11300C08F70806680937C0008958AB18C608AB9B1
S11300D08AB180698AB908958BB184608BB98BB178
S11300E0877F8BB908958BB18B7F8BB98BB1886077
S11300F08BB908958BB1837F8BB908958BB18061DF
S11301008BB98BB18F778BB908958BB18F7E8BB9F7
S11301108BB180688BB908958BB18F768BB90895B4
S113012084B5836A84BD85B5887F85BD85B58460C3
S113013085BD8AB180648AB98AB180628AB908951A
S1130140809587BD0895809588BD0895E0E8F0E026
S11301508081826A8083E1E8F0E080818A61808323
S11301608FE39CE9909387008093860084B1866036
S113017084B90895282F30E0A0EABFE00E94EF017F
S11301802FEF30E040E050E00E94CD0128513C4F79
S113019030938900209388000895282F30E0A0EA46
S11301A0BFE00E94EF012FEF30E040E050E00E94FA
S11301B0CD0128513C4F30938B0020938A00089541
S11301C08AB182608AB98AB18E7F8AB987E690E063
S11301D09093C5008093C40088E98093C10086E0B1
S11301E08093C2000895805808950F931F93CF936E
S11301F0DF93C82F082E000CDD0B262F062E000CD3
S1130200330B8E01021B130BC20FD31F01309FEF60
S1130210190714F401E01FEFC1309FEFD90714F45C
S1130220C1E0DFEF875F833178F4673F6CF06A30B9
S11302305CF40E947A000E948C0080E00E94A0007E
S113024080E00E94A3001CC0112334F00E946C00C3
S1130250802F0E94A00006C00E947300802F819509
S11302600E94A000DD2334F00E947E008C2F0E94A7
S1130270A30006C00E9485008C2F81950E94A300D4
S1130280DF91CF911F910F9108951F93CF93DF9327
S1130290C82FD62F842F122F0E94BA00812F0E94BC
S11302A0CD008C2F0E94F300C82F8D2F0E94F300E5
S11302B0682F8C2F0E94F500DF91CF911F91089534
S11302C0F8940E9490000E94A6000E9465000E947B
S11302D053000E94E000789408950E9460012091E8
S11302E000014091010160910201809103010E948B
S11302F04501F5CF1F920F920FB60F9211242F9341
S11303003F934F935F936F937F938F939F93AF9399
S1130310BF93EF93FF9380910401813081F028F023
S11303208230B9F08330F9F027C08091790080934E
S1130330030181E0809304010E9460001DC080914C
S113034079008093020182E0809304010E9460009E
S113035013C0809179008093010183E080930401AC
S11303600E94600009C0809179008093000110927E
S1130370040180E00E946000FF91EF91BF91AF9172
S11303809F918F917F916F915F914F913F912F91A9
S11303900F900FBE0F901F901895A1E21A2EAA1B62
S11303A0BB1BFD010DC0AA1FBB1FEE1FFF1FA21721
S11303B0B307E407F50720F0A21BB30BE40BF50B1E
S11303C0661F771F881F991F1A9469F760957095A7
S11303D0809590959B01AC01BD01CF010895A29F2A
S11303E0B001B39FC001A39F700D811D1124911D05
S11303F0B29F700D811D1124911D0895F894FFCFB3
S9030000FC
