:100000000C9434000C9446000C9446000C9446006A
:100010000C9446000C9446000C9446000C94460048
:100020000C9446000C9446000C9446000C94460038
:100030000C9446000C9446000C9446000C94460028
:100040000C9446000C9446000C9437010C94460026
:100050000C9446000C94DA000C9446000C94460074
:100060000C9446000C94460011241FBECFEFD8E03C
:10007000DEBFCDBF21E0A0E0B1E001C01D92A53000
:10008000B207E1F70E94B9000C947E010C940000C5
:10009000ECE7F0E0808180668083EAE7F0E0808131
:1000A000886880838081866080838081806280838D
:1000B000ABE7B0E08C9186608C9380818064808314
:1000C0000895ECE7F0E09081907F8F70892B80831A
:1000D0000895E0E8F0E08081826A8083E1E8F0E062
:1000E00080818A6180838FE39CE99093870080936D
:1000F000860084B1866084B908958AB182608AB925
:100100008AB18E7F8AB987E690E09093C50080938C
:10011000C40088E98093C10086E08093C2000895FE
:100120009091C00095FFFCCF8093C6000895F8948D
:100130000E9448000E9469000E947D007894089502
:100140001F93CF93DF93D82F192FC62F85EA0E94D4
:100150009000812F0E9490008D2F0E9490008C2F84
:100160000E9490008AE50E949000DF91CF911F913C
:1001700008950E9497006091030185E595E50E942E
:10018000A000609102018AEA9AEA0E94A0006091B0
:10019000010183E393E30E94A000609100018CECD5
:1001A0009CEC0E94A0008FE39CE90197F1F700C04E
:1001B0000000E1CF1F920F920FB60F9211242F93E0
:1001C0003F934F935F936F937F938F939F93AF93DF
:1001D000BF93EF93FF9380910401813081F028F069
:1001E0008230B9F08330F9F028C080917900809393
:1001F000030181E0809304010E94610027C0809187
:1002000079008093020182E0809304010E946100E2
:100210001DC0809179008093010183E080930401E7
:100220000E94610013C080917900809300011092B8
:10023000040180E00E94610009C0809179008093F0
:1002400003011092040180E00E946100FF91EF9190
:10025000BF91AF919F918F917F916F915F914F91DE
:100260003F912F910F900FBE0F901F9018951F92E6
:100270000F920FB60F9211242F933F934F935F93DA
:100280006F937F938F939F93AF93BF93EF93FF935E
:100290008091C600813069F028F0823089F0833087
:1002A000B1F01BC06091030185E595E50E94A000B7
:1002B00014C0609102018AEA9AEA0E94A0000DC06F
:1002C0006091010183E393E30E94A00006C0609166
:1002D00000018CEC9CEC0E94A000FF91EF91BF917B
:1002E000AF919F918F917F916F915F914F913F91CE
:1002F0002F910F900FBE0F901F901895F894FFCF7D
:00000001FF
