S01700004763634170706C69636174696F6E312E737265635B
S11300000C9434000C9449000C9449000C9449005D
S11300100C9449000C9449000C9449000C94490038
S11300200C9449000C9449000C9449000C94490028
S11300300C9449000C9449000C9449000C94490018
S11300400C9449000C9449000C9449000C94490008
S11300500C9449000C9449000C9449000C944900F8
S11300600C9449000C94490011241FBECFEFD8E032
S1130070DEBFCDBF11E0A0E0B1E0E2E7F1E002C0F5
S113008005900D92A230B107D9F70E9491000C940B
S1130090B7000C9400001092C50087E68093C4005A
S11300A088E08093C10086E08093C20008950DC06B
S11300B025B191E0922795B92FEF31EE94E02150CC
S11300C030409040E1F700C000009091C00095FFDF
S11300D0EFCF8093C60085B18E7F85B92FEF39E6C7
S11300E088E1215030408040E1F700C0000085B134
S11300F0816085B99FEF29E638E191502040304076
S1130100E1F700C000000895CF93DF93EC0103C032
S113011021960E94570088818111FACFDF91CF91F7
S1130120089584B1816084B985B1816085B92FEF68
S113013083ED90E3215080409040E1F700C000003F
S113014085B18E7F85B90E944B0080E091E00E94CA
S1130150840095B181E0892785B92FEF83ED90E381
S1130160215080409040E1F700C00000F2CFF894A5
S1050170FFCFBB
S1050172410046
S9030000FC
