:100000000C9434000C9451000C9451000C94510049
:100010000C9451000C9451000C9451000C9451001C
:100020000C9451000C9451000C9451000C9451000C
:100030000C9451000C9451000C9451000C945100FC
:100040000C9451000C9451000C9451000C945100EC
:100050000C9451000C94D0000C9451000C9451005D
:100060000C9451000C94510011241FBECFEFD8E026
:10007000DEBFCDBF11E0A0E0B1E0EEE5F2E002C0EE
:1000800005900D92A633B107D9F721E0A6E3B1E0C0
:1000900001C01D92AB33B207E1F70E94C5000C947A
:1000A0002D010C940000ECE7F0E0808180668083F5
:1000B000EAE7F0E0808188688083808186608083C1
:1000C000808180628083ABE7B0E08C9184608C9308
:1000D0008081806480830895ECE7F0E09081907FD8
:1000E0008F70892B8083089585B5836085BD16BC8C
:1000F000EEE6F0E080818160808308958AB18260BD
:100100008AB98AB18E7F8AB987E690E09093C5005C
:100110008093C40088E98093C10086E08093C20088
:1001200008959091C00095FFFCCF8093C60008957C
:10013000CF93DF93EC0103C021960E949100888148
:100140008111FACFDF91CF910895F8940E94530066
:100150000E9474000E947E008AB18C638AB98FE08D
:1001600084B9789408959BB193709BB94BB1982F43
:100170009F70292F30E0220F331F220F331F242BB3
:100180002BB982958F7085B908950E94A5008CE0E7
:1001900091E00E949800809139010E94B300FBCF4A
:1001A0001F920F920FB60F9211242F933F934F93EC
:1001B0005F936F937F938F939F93AF93BF93EF93CF
:1001C000FF9380913A01813081F028F08230B9F0BC
:1001D0008330F9F028C0809179008093390181E063
:1001E00080933A010E946C0027C08091790080932F
:1001F000380182E080933A010E946C001DC080911A
:1002000079008093370183E080933A010E946C006B
:1002100013C0809179008093360110923A0180E0FA
:100220000E946C0009C0809179008093390110927E
:100230003A0180E00E946C00FF91EF91BF91AF9175
:100240009F918F917F916F915F914F913F912F91EE
:0E0250000F900FBE0F901F901895F894FFCFDF
:10025E004D58004D59005358005359005369206CA6
:10026E00656573206573746F2E2E2E20A1436F6DFE
:10027E00756E6963616369F36E20457869746F7397
:06028E0061210D0A0000D1
:00000001FF
