:100000000C9434000C9446000C9446000C9446006A
:100010000C9446000C9446000C9446000C94460048
:100020000C9446000C9446000C9446000C94460038
:100030000C9446000C9446000C9446000C94460028
:100040000C9446000C9446000C9446000C94460018
:100050000C9446000C94B5000C9446000C94460099
:100060000C9446000C94460011241FBECFEFD8E03C
:10007000DEBFCDBF21E0A0E0B1E001C01D92A53000
:10008000B207E1F70E949A000C9412010C94000050
:10009000ECE7F0E0808180668083EAE7F0E0808131
:1000A000886880838081866080838081806280838D
:1000B000ABE7B0E08C9186608C9380818064808314
:1000C0000895ECE7F0E09081907F8F70892B80831A
:1000D00008958AB182608AB98AB18E7F8AB987E62B
:1000E00090E09093C5008093C40088E08093C100A5
:1000F00086E08093C20008959091C00095FFFCCFE8
:100100008093C6000895F8940E9448000E946900F8
:1001100078940895CF93DF93D82FC62F892F0E940C
:100120007C008D2F0E947C008C2F0E947C00DF9130
:10013000CF9108950E9483006091030185E595E5C4
:100140000E948A00609102018AEA9AEA0E948A006B
:100150006091010183E393E30E948A0060910001B2
:100160008CEC9CEC0E948A00E7CF1F920F920FB696
:100170000F9211242F933F934F935F936F937F932D
:100180008F939F93AF93BF93EF93FF93809104015D
:10019000813081F028F08230B9F08330F9F028C046
:1001A000809179008093030181E0809304010E9493
:1001B000610027C0809179008093020182E08093E2
:1001C00004010E9461001DC08091790080930101AB
:1001D00083E0809304010E94610013C08091790044
:1001E000809300011092040180E00E94610009C028
:1001F00080917900809303011092040180E00E94B5
:100200006100FF91EF91BF91AF919F918F917F918D
:100210006F915F914F913F912F910F900FBE0F9073
:080220001F901895F894FFCF20
:00000001FF
